yarn run v1.19.0
$ yarn build && node ./lib/index.js --pk xxx
$ rm -rf lib
$ babel src -x .ts -d lib --source-maps
Successfully compiled 7 files with Babel.
Created wallet with address 0xd661f985D75d67f2BBCd7b7523a55Db072E991Cf
Created wallet with address 0x218d9b2AeE241611C039781A267ea92B59Cf6485
Created wallet with address 0xEd48EDC45ef563A97D3311f00b187604664C9639
Created wallet with address 0x32732bcb6087E55e28a910E7a77c539d23F78fC2
Created wallet with address 0x4d463896086846f33af6f3738Bd81cE2373A967f


sent transaction to fund address 0xd661f985D75d67f2BBCd7b7523a55Db072E991Cf at provider undefined
sent transaction to fund address 0x218d9b2AeE241611C039781A267ea92B59Cf6485 at provider undefined
sent transaction to fund address 0xEd48EDC45ef563A97D3311f00b187604664C9639 at provider undefined
sent transaction to fund address 0x32732bcb6087E55e28a910E7a77c539d23F78fC2 at provider undefined
sent transaction to fund address 0x4d463896086846f33af6f3738Bd81cE2373A967f at provider undefined


transaction mined! (hash: 0x2c9f730d775d19571b143e20b4d30fc3662362e348542a587b7b3f96804516a0)
transaction mined! (hash: 0xc55d6edfb5dc5b36ee59d1a5e89c7510be0a924b46ad1f8cef089e2836916dc8)
transaction mined! (hash: 0xa71666113000d62605111c6a555fc4bd0bec67e845a9af600220f2723dcb18ca)
transaction mined! (hash: 0x9719375fb64c3e61247aed2a86dcd9013f0a66e018ba2464ffdb4cda98ab6de8)
transaction mined! (hash: 0xed7a491adc25a49988039fde671bd12002a7cda5f5cc862173019cb0efb605d7)


Broadcasting transactions...

Created and broadcasted 5 transactions at provider undefined
Deploying contracts from address: 0x009BD67E2d46Db4e2C948d89dFdC511723495E55
transaction mined! (hash: 0xd1f5694b1855b91fb9edb0762a281e237ede86b7c5acedec25081b5232324777)
transaction mined! (hash: 0x498a6682a4393bbe2c13fe5cc295a79b0dba99c6213291a539356c463da31712)
transaction mined! (hash: 0x4560b8aa3682aec11bd41c066b4a6439a5913f62d80f014477c1e78261944303)
transaction mined! (hash: 0x19439e410ddc10dc973297ed0f5de7d9a54969b346202e120179bd484582310c)
transaction mined! (hash: 0x766a8894983b189a2d05d62e4874acd05b1be2e57aff6a0eebaa040c59f504d1)
transaction mined! (hash: 0xa5023f5eb683fcc10afba7be0a87bbf86b3be81ded08f59bbef467a0e2841d6d)
transaction mined! (hash: 0x236e226d5eacdd3e404e98c404ef07423c1fbeef49908b56595a5a6f90c5aa4e)
transaction mined! (hash: 0x1b745e7940c89d28b9900af93af603fbeec32c93a89da7c078f1936c0e76057e)
transaction mined! (hash: 0x206b658bf3ca22209b688fdaffb21d6a1e7719d4efa4774a3ae9f5392524f547)
transaction mined! (hash: 0xdd5fbb7c9fa832cd86a035cc94a0a892f8988ddd098938b183cf46c3ee6beea5)
transaction mined! (hash: 0x21558955fa446b94e36cfe0de0154fb49ad3d4d6957149310f744ef228893655)
transaction mined! (hash: 0x887ec103aecce2cfac42d9eac7dbafbc1ce31a6aa9df652a21dde2f5229d8a6b)
transaction mined! (hash: 0xae3b95f66c94bc5b2175958ab47f785ed1103b747481a265502dab4d1bea9aa5)
transaction mined! (hash: 0x4bd2569a23feb225b0afa0ce9e730b7540f4622c53bd1b410ea28d3e2898f43a)
transaction mined! (hash: 0x4c59713846520dfad12f277e5a021870b85cc935392592e0ef481a04e5a827e7)


calling testOpcodes at provider at provider undefined...
transaction mined! (hash: 0xced15dd35dd5cd3c70341bb5ebb52ef1d99e71053c5e3a86cff173161dfefd75)
transaction mined! (hash: 0x38be4da5045ceb38666eba5adf76d9ad1f4e945a57ebbf29e6fa64da5439e2b9)
transaction mined! (hash: 0xeec89de1156ba0d4d53131e86335ca4476942015950ef860c51b298dafd36dbf)
transaction mined! (hash: 0x6bff2557a771df855a81be5696d5baa5147ee0015edbb053d3521b6fce501908)
transaction mined! (hash: 0x06ade1f695a4ccf4cdec3e8da739e9caf4e534a2a26919f3547fd27235f1b212)
transaction mined! (hash: 0xcb1a1da4d09a94d43792d409adb8b9e4652ba980afadb94aedb284f5f3a1f58a)
transaction mined! (hash: 0x9daa0b8ec5d4eb721e18d81ea0ea10114065f09db6a94f52196c9f4c56e28a66)
transaction mined! (hash: 0xfaa7b8d74859a30245c0a5f261cb015c5b1e053ec0defb348dafe2c3cc62d3c7)
transaction mined! (hash: 0xa24dfa85b13e923a920f10b714b167190fbc3a8aed372501815e33b1c0cea04c)
transaction mined! (hash: 0xf09b46cd57155fc4e841a9ac45f26ea5ffb193e8f8992e3b09f9cb5a25f561b9)
transaction mined! (hash: 0xb3b87659e536acfcc6f0a1263d28723c4b5b2c49d8f7ee5c1539d260c8f5114d)
transaction mined! (hash: 0x65f58ba16faab965dab6ec70a3bdf4f4a3a2f5c9401064bec46dc965486df4b8)
transaction mined! (hash: 0xb5dc7ceae29b7a498177c8e7d0011e84a34dad4687a506ef447fdc26a8080ca7)
transaction mined! (hash: 0x8e939565a085335971adb9297639f731e1446526534d6b1c7fd7033f73013eef)
transaction mined! (hash: 0xff651c4bea420788713f2913f244a481ba61515a21bf0771026cbe8ff6404041)


{
  hash: '0xced15dd35dd5cd3c70341bb5ebb52ef1d99e71053c5e3a86cff173161dfefd75',
  blockHash: '0x9ea0b2f6585325c72877ace31513488180c5101d85a577a8bcff384c969324a8',
  blockNumber: 2442399,
  transactionIndex: 15,
  confirmations: 1,
  from: '0x009BD67E2d46Db4e2C948d89dFdC511723495E55',
  gasPrice: BigNumber { _hex: '0x9502f9000' },
  gasLimit: BigNumber { _hex: '0x33450' },
  to: '0x350cf193470897d67C0DC6bca1a3Ec75FAf29BE0',
  value: BigNumber { _hex: '0x0' },
  nonce: 1229,
  data: '0x391521f4',
  r: '0xccb69c3a6b4651a833d6acc75a07e0c1fa4e0b9df9d39b5b31e0491ecb667744',
  s: '0x6d0b7e0053ae000868d3c81763f2fa663a8e95468af8bcca6d26d12003b7831b',
  v: 48,
  creates: null,
  raw: '0xf86b8204cd8509502f90008303345094350cf193470897d67c0dc6bca1a3ec75faf29be08084391521f430a0ccb69c3a6b4651a833d6acc75a07e0c1fa4e0b9df9d39b5b31e0491ecb667744a06d0b7e0053ae000868d3c81763f2fa663a8e95468af8bcca6d26d12003b7831b',
  networkId: 6,
  wait: [Function (anonymous)]
}
{
  hash: '0x38be4da5045ceb38666eba5adf76d9ad1f4e945a57ebbf29e6fa64da5439e2b9',
  blockHash: '0x9ea0b2f6585325c72877ace31513488180c5101d85a577a8bcff384c969324a8',
  blockNumber: 2442399,
  transactionIndex: 16,
  confirmations: 1,
  from: '0x009BD67E2d46Db4e2C948d89dFdC511723495E55',
  gasPrice: BigNumber { _hex: '0x9502f9000' },
  gasLimit: BigNumber { _hex: '0x33450' },
  to: '0x2577ECe9863C808EC6BbFCf704AE4f68cFE58294',
  value: BigNumber { _hex: '0x0' },
  nonce: 1230,
  data: '0x391521f4',
  r: '0x7c2c4878181a6b7a7d048700196f5da3bb3aaa2306094812585d0e0458b996a1',
  s: '0x7c6c8adaaafa6e87e6f6e9b3246c9ae03204add56f2296b04a5a52e62fa99cd8',
  v: 48,
  creates: null,
  raw: '0xf86b8204ce8509502f900083033450942577ece9863c808ec6bbfcf704ae4f68cfe582948084391521f430a07c2c4878181a6b7a7d048700196f5da3bb3aaa2306094812585d0e0458b996a1a07c6c8adaaafa6e87e6f6e9b3246c9ae03204add56f2296b04a5a52e62fa99cd8',
  networkId: 6,
  wait: [Function (anonymous)]
}
{
  hash: '0xeec89de1156ba0d4d53131e86335ca4476942015950ef860c51b298dafd36dbf',
  blockHash: '0x9ea0b2f6585325c72877ace31513488180c5101d85a577a8bcff384c969324a8',
  blockNumber: 2442399,
  transactionIndex: 17,
  confirmations: 1,
  from: '0x009BD67E2d46Db4e2C948d89dFdC511723495E55',
  gasPrice: BigNumber { _hex: '0x9502f9000' },
  gasLimit: BigNumber { _hex: '0x33450' },
  to: '0xd08a43CC4528A3785D21061f8ba1A75506AF4ADE',
  value: BigNumber { _hex: '0x0' },
  nonce: 1231,
  data: '0x391521f4',
  r: '0x4c20fb5e31815d39a5422b2d682c43d6c1d015bca3b995fd9ba26abfd915291e',
  s: '0x620a2da790494409e65b0c2a5874393398b33c32f674a64544d6b8833cc3fb13',
  v: 48,
  creates: null,
  raw: '0xf86b8204cf8509502f90008303345094d08a43cc4528a3785d21061f8ba1a75506af4ade8084391521f430a04c20fb5e31815d39a5422b2d682c43d6c1d015bca3b995fd9ba26abfd915291ea0620a2da790494409e65b0c2a5874393398b33c32f674a64544d6b8833cc3fb13',
  networkId: 6,
  wait: [Function (anonymous)]
}
{
  hash: '0x6bff2557a771df855a81be5696d5baa5147ee0015edbb053d3521b6fce501908',
  blockHash: '0x9ea0b2f6585325c72877ace31513488180c5101d85a577a8bcff384c969324a8',
  blockNumber: 2442399,
  transactionIndex: 18,
  confirmations: 1,
  from: '0x009BD67E2d46Db4e2C948d89dFdC511723495E55',
  gasPrice: BigNumber { _hex: '0x9502f9000' },
  gasLimit: BigNumber { _hex: '0x33450' },
  to: '0x2CaE04424d251dE5A7a6dD41375981Fc6cc6f54f',
  value: BigNumber { _hex: '0x0' },
  nonce: 1232,
  data: '0x391521f4',
  r: '0x75e10630a5ecae8e1815185e8d23528895e3d5c5e9fcb26e7b022a2f1da58f80',
  s: '0x5d7043e1f80271fd1f9a15f8d51b0cef9d56fec7e4690e7aea2b13a994764053',
  v: 48,
  creates: null,
  raw: '0xf86b8204d08509502f900083033450942cae04424d251de5a7a6dd41375981fc6cc6f54f8084391521f430a075e10630a5ecae8e1815185e8d23528895e3d5c5e9fcb26e7b022a2f1da58f80a05d7043e1f80271fd1f9a15f8d51b0cef9d56fec7e4690e7aea2b13a994764053',
  networkId: 6,
  wait: [Function (anonymous)]
}
{
  hash: '0x06ade1f695a4ccf4cdec3e8da739e9caf4e534a2a26919f3547fd27235f1b212',
  blockHash: '0x9ea0b2f6585325c72877ace31513488180c5101d85a577a8bcff384c969324a8',
  blockNumber: 2442399,
  transactionIndex: 19,
  confirmations: 1,
  from: '0x009BD67E2d46Db4e2C948d89dFdC511723495E55',
  gasPrice: BigNumber { _hex: '0x9502f9000' },
  gasLimit: BigNumber { _hex: '0x33450' },
  to: '0xb11d382506780474f6b4c4B9eE10b5695d08a871',
  value: BigNumber { _hex: '0x0' },
  nonce: 1233,
  data: '0x391521f4',
  r: '0x2e70bf88f37054366e879965b22dec9c9456f1b90e4ecb32261b7023d8ededdf',
  s: '0x115d100a548bcd21374864207cd55523d8a4afa107c990249d2dba81cc32e323',
  v: 47,
  creates: null,
  raw: '0xf86b8204d18509502f90008303345094b11d382506780474f6b4c4b9ee10b5695d08a8718084391521f42fa02e70bf88f37054366e879965b22dec9c9456f1b90e4ecb32261b7023d8ededdfa0115d100a548bcd21374864207cd55523d8a4afa107c990249d2dba81cc32e323',
  networkId: 6,
  wait: [Function (anonymous)]
}
{
  hash: '0xcb1a1da4d09a94d43792d409adb8b9e4652ba980afadb94aedb284f5f3a1f58a',
  blockHash: '0x9ea0b2f6585325c72877ace31513488180c5101d85a577a8bcff384c969324a8',
  blockNumber: 2442399,
  transactionIndex: 20,
  confirmations: 1,
  from: '0x009BD67E2d46Db4e2C948d89dFdC511723495E55',
  gasPrice: BigNumber { _hex: '0x9502f9000' },
  gasLimit: BigNumber { _hex: '0x33450' },
  to: '0xBeb63512D6DDCe82bf27Cc4D09F301cC755506CA',
  value: BigNumber { _hex: '0x0' },
  nonce: 1234,
  data: '0x391521f4',
  r: '0xf3828e5532a9d5bb3cdd3f32804f679cb7b640eb8e0a65a84ec043722cf20369',
  s: '0x20202cdfe91b545cd0822575df41dd7703ff6d7a57b32a4da8bc4ea521a0558f',
  v: 48,
  creates: null,
  raw: '0xf86b8204d28509502f90008303345094beb63512d6ddce82bf27cc4d09f301cc755506ca8084391521f430a0f3828e5532a9d5bb3cdd3f32804f679cb7b640eb8e0a65a84ec043722cf20369a020202cdfe91b545cd0822575df41dd7703ff6d7a57b32a4da8bc4ea521a0558f',
  networkId: 6,
  wait: [Function (anonymous)]
}
{
  hash: '0x9daa0b8ec5d4eb721e18d81ea0ea10114065f09db6a94f52196c9f4c56e28a66',
  blockHash: '0x9ea0b2f6585325c72877ace31513488180c5101d85a577a8bcff384c969324a8',
  blockNumber: 2442399,
  transactionIndex: 21,
  confirmations: 1,
  from: '0x009BD67E2d46Db4e2C948d89dFdC511723495E55',
  gasPrice: BigNumber { _hex: '0x9502f9000' },
  gasLimit: BigNumber { _hex: '0x33450' },
  to: '0x0CEb6a901bc1f7394d96bFb4f13A34De7C68784c',
  value: BigNumber { _hex: '0x0' },
  nonce: 1235,
  data: '0x391521f4',
  r: '0xcf2d0287a0d29d4d8f4bf93ffe464bfa1e7d26901fd4b69d9779f4d7ac750020',
  s: '0x1a9953bc039a57bd05d4968710b7102ffa719118df59d8ef4e9a5e2801157e33',
  v: 47,
  creates: null,
  raw: '0xf86b8204d38509502f900083033450940ceb6a901bc1f7394d96bfb4f13a34de7c68784c8084391521f42fa0cf2d0287a0d29d4d8f4bf93ffe464bfa1e7d26901fd4b69d9779f4d7ac750020a01a9953bc039a57bd05d4968710b7102ffa719118df59d8ef4e9a5e2801157e33',
  networkId: 6,
  wait: [Function (anonymous)]
}
{
  hash: '0xfaa7b8d74859a30245c0a5f261cb015c5b1e053ec0defb348dafe2c3cc62d3c7',
  blockHash: '0x9ea0b2f6585325c72877ace31513488180c5101d85a577a8bcff384c969324a8',
  blockNumber: 2442399,
  transactionIndex: 22,
  confirmations: 1,
  from: '0x009BD67E2d46Db4e2C948d89dFdC511723495E55',
  gasPrice: BigNumber { _hex: '0x9502f9000' },
  gasLimit: BigNumber { _hex: '0x33450' },
  to: '0xc22cB9b197d9e0f5e55C86caf04745B2414dE09B',
  value: BigNumber { _hex: '0x0' },
  nonce: 1236,
  data: '0x391521f4',
  r: '0xc4026dc01362f1362d801061e93f46dfbba6b52905c4b8e5354c88105daf91ce',
  s: '0x35342926d3e8bb23c772d0307ef86f711feccb07ca948108845484f9189d6f9f',
  v: 47,
  creates: null,
  raw: '0xf86b8204d48509502f90008303345094c22cb9b197d9e0f5e55c86caf04745b2414de09b8084391521f42fa0c4026dc01362f1362d801061e93f46dfbba6b52905c4b8e5354c88105daf91cea035342926d3e8bb23c772d0307ef86f711feccb07ca948108845484f9189d6f9f',
  networkId: 6,
  wait: [Function (anonymous)]
}
{
  hash: '0xa24dfa85b13e923a920f10b714b167190fbc3a8aed372501815e33b1c0cea04c',
  blockHash: '0x9ea0b2f6585325c72877ace31513488180c5101d85a577a8bcff384c969324a8',
  blockNumber: 2442399,
  transactionIndex: 23,
  confirmations: 1,
  from: '0x009BD67E2d46Db4e2C948d89dFdC511723495E55',
  gasPrice: BigNumber { _hex: '0x9502f9000' },
  gasLimit: BigNumber { _hex: '0x33450' },
  to: '0x6133FD4CE461204a65E2406234C7D8Ab7645f373',
  value: BigNumber { _hex: '0x0' },
  nonce: 1237,
  data: '0x391521f4',
  r: '0x27dd26b750818ff2315bc6df3e59cbac70211c2e9d3c989508a628bd215f765e',
  s: '0x57bbe7964510c900c3e27cf1dd3558e61952da48cbecdc6f9be3d14e951cd4f7',
  v: 48,
  creates: null,
  raw: '0xf86b8204d58509502f900083033450946133fd4ce461204a65e2406234c7d8ab7645f3738084391521f430a027dd26b750818ff2315bc6df3e59cbac70211c2e9d3c989508a628bd215f765ea057bbe7964510c900c3e27cf1dd3558e61952da48cbecdc6f9be3d14e951cd4f7',
  networkId: 6,
  wait: [Function (anonymous)]
}
{
  hash: '0xf09b46cd57155fc4e841a9ac45f26ea5ffb193e8f8992e3b09f9cb5a25f561b9',
  blockHash: '0x9ea0b2f6585325c72877ace31513488180c5101d85a577a8bcff384c969324a8',
  blockNumber: 2442399,
  transactionIndex: 24,
  confirmations: 1,
  from: '0x009BD67E2d46Db4e2C948d89dFdC511723495E55',
  gasPrice: BigNumber { _hex: '0x9502f9000' },
  gasLimit: BigNumber { _hex: '0x33450' },
  to: '0xA3d9E467EE06787A11c93E4e54362f105457DDdd',
  value: BigNumber { _hex: '0x0' },
  nonce: 1238,
  data: '0x391521f4',
  r: '0xcea13f327fd7bf2eba47aedadb0f7c352e06f380490df6fbc9ba582acd2b89c2',
  s: '0x1ceb7c76d1a2aa05ceb8576219d902e5048f15f1e0cd051c19bb0ebc4fbbc17d',
  v: 47,
  creates: null,
  raw: '0xf86b8204d68509502f90008303345094a3d9e467ee06787a11c93e4e54362f105457dddd8084391521f42fa0cea13f327fd7bf2eba47aedadb0f7c352e06f380490df6fbc9ba582acd2b89c2a01ceb7c76d1a2aa05ceb8576219d902e5048f15f1e0cd051c19bb0ebc4fbbc17d',
  networkId: 6,
  wait: [Function (anonymous)]
}
{
  hash: '0xb3b87659e536acfcc6f0a1263d28723c4b5b2c49d8f7ee5c1539d260c8f5114d',
  blockHash: '0x9ea0b2f6585325c72877ace31513488180c5101d85a577a8bcff384c969324a8',
  blockNumber: 2442399,
  transactionIndex: 25,
  confirmations: 1,
  from: '0x009BD67E2d46Db4e2C948d89dFdC511723495E55',
  gasPrice: BigNumber { _hex: '0x9502f9000' },
  gasLimit: BigNumber { _hex: '0x33450' },
  to: '0x18BD6E8b6c3451361083fb44025a29DdE247f868',
  value: BigNumber { _hex: '0x0' },
  nonce: 1239,
  data: '0x391521f4',
  r: '0x06452b20eed81f25f6abd2c9ef0705c4c16e51cee11eb52f0e002e01646443ba',
  s: '0x2f8548d3524fc245118a35643d1cf1ff460f947f7e463f47fda1f2d9ddaa031a',
  v: 48,
  creates: null,
  raw: '0xf86b8204d78509502f9000830334509418bd6e8b6c3451361083fb44025a29dde247f8688084391521f430a006452b20eed81f25f6abd2c9ef0705c4c16e51cee11eb52f0e002e01646443baa02f8548d3524fc245118a35643d1cf1ff460f947f7e463f47fda1f2d9ddaa031a',
  networkId: 6,
  wait: [Function (anonymous)]
}
{
  hash: '0x65f58ba16faab965dab6ec70a3bdf4f4a3a2f5c9401064bec46dc965486df4b8',
  blockHash: '0x9ea0b2f6585325c72877ace31513488180c5101d85a577a8bcff384c969324a8',
  blockNumber: 2442399,
  transactionIndex: 26,
  confirmations: 1,
  from: '0x009BD67E2d46Db4e2C948d89dFdC511723495E55',
  gasPrice: BigNumber { _hex: '0x9502f9000' },
  gasLimit: BigNumber { _hex: '0x33450' },
  to: '0xeBFc74CaC0d0658eD117b9A6eAadBD8cC84cA90F',
  value: BigNumber { _hex: '0x0' },
  nonce: 1240,
  data: '0x391521f4',
  r: '0xd25730fdee54a498836d94d039c09e722b1059005aabaa9f9eab5fac87cd5842',
  s: '0x19e96c3050fb681c095e541ca0a3d14cc4d04278ff88ade54148aa92fbcc3ef8',
  v: 47,
  creates: null,
  raw: '0xf86b8204d88509502f90008303345094ebfc74cac0d0658ed117b9a6eaadbd8cc84ca90f8084391521f42fa0d25730fdee54a498836d94d039c09e722b1059005aabaa9f9eab5fac87cd5842a019e96c3050fb681c095e541ca0a3d14cc4d04278ff88ade54148aa92fbcc3ef8',
  networkId: 6,
  wait: [Function (anonymous)]
}
{
  hash: '0xb5dc7ceae29b7a498177c8e7d0011e84a34dad4687a506ef447fdc26a8080ca7',
  blockHash: '0x9ea0b2f6585325c72877ace31513488180c5101d85a577a8bcff384c969324a8',
  blockNumber: 2442399,
  transactionIndex: 27,
  confirmations: 1,
  from: '0x009BD67E2d46Db4e2C948d89dFdC511723495E55',
  gasPrice: BigNumber { _hex: '0x9502f9000' },
  gasLimit: BigNumber { _hex: '0x33450' },
  to: '0x72663F797769BB8ebA3c7BfBA13EC014E4Fd2D33',
  value: BigNumber { _hex: '0x0' },
  nonce: 1241,
  data: '0x391521f4',
  r: '0xfa15762fb6d0be58c35193e38a7f6211cdfa89540f4db46dfe8accf283ba1514',
  s: '0x2c6d3f09a009413ccae6100aeca1f30586feb3d27694ea67dcc4e672a88e415d',
  v: 48,
  creates: null,
  raw: '0xf86b8204d98509502f9000830334509472663f797769bb8eba3c7bfba13ec014e4fd2d338084391521f430a0fa15762fb6d0be58c35193e38a7f6211cdfa89540f4db46dfe8accf283ba1514a02c6d3f09a009413ccae6100aeca1f30586feb3d27694ea67dcc4e672a88e415d',
  networkId: 6,
  wait: [Function (anonymous)]
}
{
  hash: '0x8e939565a085335971adb9297639f731e1446526534d6b1c7fd7033f73013eef',
  blockHash: '0x9ea0b2f6585325c72877ace31513488180c5101d85a577a8bcff384c969324a8',
  blockNumber: 2442399,
  transactionIndex: 28,
  confirmations: 1,
  from: '0x009BD67E2d46Db4e2C948d89dFdC511723495E55',
  gasPrice: BigNumber { _hex: '0x9502f9000' },
  gasLimit: BigNumber { _hex: '0x33450' },
  to: '0x98A9524305Ad51ECE64Bb5baaD35F2A35cc88092',
  value: BigNumber { _hex: '0x0' },
  nonce: 1242,
  data: '0x391521f4',
  r: '0x92c0eb21d0cb4bb9b454daca0f99e356c368abc31db70bff99cb6c79c2ed44b1',
  s: '0x12bae74aec3ef265d1b8e6dba567c7fa41a57e05da170527a23f13b7ec76d492',
  v: 47,
  creates: null,
  raw: '0xf86b8204da8509502f9000830334509498a9524305ad51ece64bb5baad35f2a35cc880928084391521f42fa092c0eb21d0cb4bb9b454daca0f99e356c368abc31db70bff99cb6c79c2ed44b1a012bae74aec3ef265d1b8e6dba567c7fa41a57e05da170527a23f13b7ec76d492',
  networkId: 6,
  wait: [Function (anonymous)]
}
{
  hash: '0xff651c4bea420788713f2913f244a481ba61515a21bf0771026cbe8ff6404041',
  blockHash: '0x9ea0b2f6585325c72877ace31513488180c5101d85a577a8bcff384c969324a8',
  blockNumber: 2442399,
  transactionIndex: 29,
  confirmations: 1,
  from: '0x009BD67E2d46Db4e2C948d89dFdC511723495E55',
  gasPrice: BigNumber { _hex: '0x9502f9000' },
  gasLimit: BigNumber { _hex: '0x33450' },
  to: '0x76bb68B6b5b6B1e25e94767634a5c99009c6eEBC',
  value: BigNumber { _hex: '0x0' },
  nonce: 1243,
  data: '0x391521f4',
  r: '0x8894fb4dd994013c52052196be536237d63e2a33e25aea6cd88d2b85f0517436',
  s: '0x553dc21e6edc574e2ce0346ddad3e7cedb11535af849e7ea1a5f130aebfaffd2',
  v: 47,
  creates: null,
  raw: '0xf86b8204db8509502f9000830334509476bb68b6b5b6b1e25e94767634a5c99009c6eebc8084391521f42fa08894fb4dd994013c52052196be536237d63e2a33e25aea6cd88d2b85f0517436a0553dc21e6edc574e2ce0346ddad3e7cedb11535af849e7ea1a5f130aebfaffd2',
  networkId: 6,
  wait: [Function (anonymous)]
}
testing edgecases at undefined...
0x6060604052341561000f57600080fd5b6040516020806103b58339810160405280805160008054600160a060020a03338116600160a060020a0319928316179092556001805492909316911617905550506103568061005f6000396000f3006060604052600436106100535763ffffffff60e060020a60003504166310c42eaf81146100555780634d63a5421461006c5780634fe870ab146100995780635bee6f92146100c85780638da5cb5b146100e7575b005b610053600160a060020a03600435166024356100fa565b610053600160a060020a03600435166024356fffffffffffffffffffffffffffffffff19604435166101c2565b34156100a457600080fd5b6100ac6102c2565b604051600160a060020a03909116815260200160405180910390f35b34156100d357600080fd5b610053600160a060020a03600435166102d1565b34156100f257600080fd5b6100ac61031b565b60005433600160a060020a039081169116148061017f5750600154600160a060020a031663fe9fbb803360405160e060020a63ffffffff8416028152600160a060020a039091166004820152602401602060405180830381600087803b151561016257600080fd5b5af1151561016f57600080fd5b5050506040518051151560011490505b151561018a57600080fd5b600160a060020a03821634820180156108fc0290604051600060405180830381858888f1935050505015156101be57600080fd5b5050565b60005433600160a060020a03908116911614806102475750600154600160a060020a031663fe9fbb803360405160e060020a63ffffffff8416028152600160a060020a039091166004820152602401602060405180830381600087803b151561022a57600080fd5b5af1151561023757600080fd5b5050506040518051151560011490505b151561025257600080fd5b82600160a060020a031663359d1f118334018360405160e060020a63ffffffff85160281526fffffffffffffffffffffffffffffffff1990911660048201526024016000604051808303818588803b15156102ac57600080fd5b5af115156102b957600080fd5b50505050505050565b600154600160a060020a031681565b60005433600160a060020a039081169116146102ec57600080fd5b6001805473ffffffffffffffffffffffffffffffffffffffff1916600160a060020a0392909216919091179055565b600054600160a060020a0316815600a165627a7a7230582046ee003a7d8c03a02f6ba3dfdb80862c30abaf5fcbb8d5cbfccde55270e6e2a3002900000000000000000000000072dab16d86da2e2c05d0bff39477f271b059dd0e
{
  hash: '0xf3832ef88ab571a66b99e6c87383c8ea8e5587c4ac690f47d7f79fda1a01ba73',
  blockHash: null,
  blockNumber: null,
  transactionIndex: null,
  confirmations: 0,
  from: '0x009BD67E2d46Db4e2C948d89dFdC511723495E55',
  gasPrice: BigNumber { _hex: '0x9502f9000' },
  gasLimit: BigNumber { _hex: '0x33450' },
  to: null,
  value: BigNumber { _hex: '0x0' },
  nonce: 1244,
  data: '0x6060604052341561000f57600080fd5b6040516020806103b58339810160405280805160008054600160a060020a03338116600160a060020a0319928316179092556001805492909316911617905550506103568061005f6000396000f3006060604052600436106100535763ffffffff60e060020a60003504166310c42eaf81146100555780634d63a5421461006c5780634fe870ab146100995780635bee6f92146100c85780638da5cb5b146100e7575b005b610053600160a060020a03600435166024356100fa565b610053600160a060020a03600435166024356fffffffffffffffffffffffffffffffff19604435166101c2565b34156100a457600080fd5b6100ac6102c2565b604051600160a060020a03909116815260200160405180910390f35b34156100d357600080fd5b610053600160a060020a03600435166102d1565b34156100f257600080fd5b6100ac61031b565b60005433600160a060020a039081169116148061017f5750600154600160a060020a031663fe9fbb803360405160e060020a63ffffffff8416028152600160a060020a039091166004820152602401602060405180830381600087803b151561016257600080fd5b5af1151561016f57600080fd5b5050506040518051151560011490505b151561018a57600080fd5b600160a060020a03821634820180156108fc0290604051600060405180830381858888f1935050505015156101be57600080fd5b5050565b60005433600160a060020a03908116911614806102475750600154600160a060020a031663fe9fbb803360405160e060020a63ffffffff8416028152600160a060020a039091166004820152602401602060405180830381600087803b151561022a57600080fd5b5af1151561023757600080fd5b5050506040518051151560011490505b151561025257600080fd5b82600160a060020a031663359d1f118334018360405160e060020a63ffffffff85160281526fffffffffffffffffffffffffffffffff1990911660048201526024016000604051808303818588803b15156102ac57600080fd5b5af115156102b957600080fd5b50505050505050565b600154600160a060020a031681565b60005433600160a060020a039081169116146102ec57600080fd5b6001805473ffffffffffffffffffffffffffffffffffffffff1916600160a060020a0392909216919091179055565b600054600160a060020a0316815600a165627a7a7230582046ee003a7d8c03a02f6ba3dfdb80862c30abaf5fcbb8d5cbfccde55270e6e2a3002900000000000000000000000072dab16d86da2e2c05d0bff39477f271b059dd0e',
  r: '0x40ca2cf61116ba5d072c44a9da30e3dbaed18931419a17f77be0a98725130445',
  s: '0x44d98594fd27d9c66d342bae83ec26b3d725ee12d3a7a1d166917c2ffdceb904',
  v: 48,
  creates: '0xC90a52709cAB599ae387aaDffd7B7DfADa0038BD',
  raw: '0xf9042a8204dc8509502f9000830334508080b903d56060604052341561000f57600080fd5b6040516020806103b58339810160405280805160008054600160a060020a03338116600160a060020a0319928316179092556001805492909316911617905550506103568061005f6000396000f3006060604052600436106100535763ffffffff60e060020a60003504166310c42eaf81146100555780634d63a5421461006c5780634fe870ab146100995780635bee6f92146100c85780638da5cb5b146100e7575b005b610053600160a060020a03600435166024356100fa565b610053600160a060020a03600435166024356fffffffffffffffffffffffffffffffff19604435166101c2565b34156100a457600080fd5b6100ac6102c2565b604051600160a060020a03909116815260200160405180910390f35b34156100d357600080fd5b610053600160a060020a03600435166102d1565b34156100f257600080fd5b6100ac61031b565b60005433600160a060020a039081169116148061017f5750600154600160a060020a031663fe9fbb803360405160e060020a63ffffffff8416028152600160a060020a039091166004820152602401602060405180830381600087803b151561016257600080fd5b5af1151561016f57600080fd5b5050506040518051151560011490505b151561018a57600080fd5b600160a060020a03821634820180156108fc0290604051600060405180830381858888f1935050505015156101be57600080fd5b5050565b60005433600160a060020a03908116911614806102475750600154600160a060020a031663fe9fbb803360405160e060020a63ffffffff8416028152600160a060020a039091166004820152602401602060405180830381600087803b151561022a57600080fd5b5af1151561023757600080fd5b5050506040518051151560011490505b151561025257600080fd5b82600160a060020a031663359d1f118334018360405160e060020a63ffffffff85160281526fffffffffffffffffffffffffffffffff1990911660048201526024016000604051808303818588803b15156102ac57600080fd5b5af115156102b957600080fd5b50505050505050565b600154600160a060020a031681565b60005433600160a060020a039081169116146102ec57600080fd5b6001805473ffffffffffffffffffffffffffffffffffffffff1916600160a060020a0392909216919091179055565b600054600160a060020a0316815600a165627a7a7230582046ee003a7d8c03a02f6ba3dfdb80862c30abaf5fcbb8d5cbfccde55270e6e2a3002900000000000000000000000072dab16d86da2e2c05d0bff39477f271b059dd0e30a040ca2cf61116ba5d072c44a9da30e3dbaed18931419a17f77be0a98725130445a044d98594fd27d9c66d342bae83ec26b3d725ee12d3a7a1d166917c2ffdceb904',
  networkId: 6,
  wait: [Function (anonymous)]
}
Anemone executed without errors!
Done in 47.14s.
