yarn run v1.19.0
$ yarn build && node ./lib/index.js --pk xxx --rpcport http://localhost:8063
$ rm -rf lib
$ babel src -x .ts -d lib --source-maps
Successfully compiled 7 files with Babel.
Created wallet with address 0x243845dC5A184f0a35E871F2deB24D52d86442fF
Created wallet with address 0xB780F04fA0F96F4010756F391f7EfB9e4198be73
Created wallet with address 0xfd27F8425566c79Cb8113542dc2e8d4eD95581f9
Created wallet with address 0x869B7D4A9E35e986b6cB5B565B6DD82d34c6D0bC
Created wallet with address 0x8F10e903Fd5129C33a03927affcB35dfccFBE084


sent transaction to fund address 0x243845dC5A184f0a35E871F2deB24D52d86442fF at provider undefined
sent transaction to fund address 0xB780F04fA0F96F4010756F391f7EfB9e4198be73 at provider undefined
sent transaction to fund address 0xfd27F8425566c79Cb8113542dc2e8d4eD95581f9 at provider undefined
sent transaction to fund address 0x869B7D4A9E35e986b6cB5B565B6DD82d34c6D0bC at provider undefined
sent transaction to fund address 0x8F10e903Fd5129C33a03927affcB35dfccFBE084 at provider undefined


transaction mined! (hash: 0xc8b94f3f7db5544403fe8da8acef1ae0a3f304b82e9b75b2832e9306bb287fb7)
transaction mined! (hash: 0x34d31ba65304efb1795b9692455bfe4cb5167debd2b9303d0bead46381b1ce1b)
transaction mined! (hash: 0xddc56eef76ea459b904f6034679f7a14ec83e597d5daf74f20a8f602c6ea5bc8)
transaction mined! (hash: 0xfece87c0bd35f88c8af8cd8d2c144b39bc67a19e3935b41b06dbae6035fc621d)
transaction mined! (hash: 0x5fd9b64c53f763bbfd8146198a4eebcfb92c98fc32fb909c8f01039d240ca919)


Broadcasting transactions...

Created and broadcasted 25 transactions at provider undefined
Deploying contracts from address: 0x877BD459c9B7D8576B44E59E09d076C25946F443
transaction mined! (hash: 0xb9a2cf0eec3ee15df52fbc2e33c64fc472a18f939cfdb3efd6b5cc567b0104a4)
transaction mined! (hash: 0x147c1fdae6e1ab2f4f7b7f044bf944add9564eb4c0c7c5a31656ef1acf7f536b)
transaction mined! (hash: 0xa18a115aba5847a79da11b258cbb7ea1575350f2ad20615d0afada053eaef184)
transaction mined! (hash: 0x2f43e474cdff83e4e9149fa9ebe577f7eb80cda4bd713a9de1eadd03d5452160)
transaction mined! (hash: 0xc8c3d18d64f9b5841c977da7af4b98077db4bf701e25bae7df3df3bf5a5fa6f0)
transaction mined! (hash: 0xfbeebc7597a667a13844a929d682664883dbfab752597997bf77d953d69f5e72)
transaction mined! (hash: 0x31469ab572654b088dd9c03cc7c9b8ec9d27692ad35317009117912f7275a74e)
transaction mined! (hash: 0x068c04a61d81776c4619321acfd39f8511949e52d0135d637aeb80d52cb6a6aa)
transaction mined! (hash: 0x0ef386a5f46fce22a956f7a60d7a29769981c051d58700820dc984a65666741d)
transaction mined! (hash: 0x727d5c4b07ff3292bfe27f79938f3a82d15bfcdc58b14e737bb2666370e20e41)
transaction mined! (hash: 0xde93ec41dd13c71abf47811b65ccd4dfd086c601a656eda3af943b354cf92f09)
transaction mined! (hash: 0xadb74ed873e7dc3af8d1692cc02e6f9d446c835ef4480a55186beb40d4c8e070)
transaction mined! (hash: 0x1eae21f296e7cd9a4b7f27340059e6ef110f4f0066cb986bf6806b45ab0db9b1)
transaction mined! (hash: 0xa6cd45f425e0a77c652488149e2769340f0ba33824a918aa2518b2da3fc9690c)
transaction mined! (hash: 0x9540947fcd81eec15fe8c90f3747fa7f22383ba839d05d193be52dbe8bb37d93)


calling testOpcodes at provider at provider undefined...
transaction mined! (hash: 0xf1ce8779aeb35d6569e0fd2dfbe24442696ddbac21851935bc44e260f80283ec)
transaction mined! (hash: 0xa04569453f51888449f7a86d1adafa3bdd8aafae1ca48da4eed3274839825099)
transaction mined! (hash: 0x1c37c63a8df74e87c807c802097078b4e0e872d9082b7d3321821bd9829e27de)
transaction mined! (hash: 0x7b8accfc2062dd32987d29755bdd8aa83e8464b4fbecf9dd08eac5942ec78132)
transaction mined! (hash: 0x51d2d7e8f593fecd1942b6604e68a2a54ac54528622b98796fa44cd12a709111)
transaction mined! (hash: 0x433c962478c8754e5570bd2931e74dddaee00dabe4aef9404943e9ecc956c480)
transaction mined! (hash: 0x0b746e0788471b5bb483cba11f750fdb257e4c4a825cedc58310111556457e42)
transaction mined! (hash: 0x12c2673b3d0dd8b7d38ee82d1f07ae218c7807e97e4e43304dfbe0cb712f27a3)
transaction mined! (hash: 0xe8148956ea7e2b2f0a29477f08ddcee5bd3b5d393c18ea3ba8b01f6834250f67)
transaction mined! (hash: 0x35977bdb0c3c8373f0ecfd66daa176b1d06295838138b708ab0e6e0e999f444f)
transaction mined! (hash: 0x4c5a5d7009858b9841f9ac593f4c8ca68d831768cf93d4a4d4bcc4bb7b73b13c)
transaction mined! (hash: 0x029749486f9195c361c47c0ad5718f7ae44e7553834bbaeac3aa63d66157b87d)
transaction mined! (hash: 0x514eed80e1bbc6cd9f170c08672b9d725157f2db5ecc6dae90a3bcfbfc6701d7)
transaction mined! (hash: 0x1a6e96caa3c7942c2155dda01dad81b5323ebfb28c76dc471b4ff4a28515cb6b)
transaction mined! (hash: 0xa5b67d68c408fccd075260a29fa604c8680b0fa14400e699982b2a25cbe32d4f)


{
  hash: '0xf1ce8779aeb35d6569e0fd2dfbe24442696ddbac21851935bc44e260f80283ec',
  blockHash: '0x8d10c1529b7cab570c9bf69bf2d24283bca1040f5df7c25d9b4131dee59db246',
  blockNumber: 1559154,
  transactionIndex: 0,
  confirmations: 1,
  from: '0x877BD459c9B7D8576B44E59E09d076C25946F443',
  gasPrice: BigNumber { _hex: '0x2540be400' },
  gasLimit: BigNumber { _hex: '0x33450' },
  to: '0xc4C162a97b6F43A255D491DffFCD703a54a042aD',
  value: BigNumber { _hex: '0x0' },
  nonce: 278973,
  data: '0x391521f4',
  r: '0xf1bd3cfa6182bb07af4f8f603d70bfbaf054515ea28592534e1bcdd78837a205',
  s: '0x2c0f53ea9b95dc10b2e0b51dd6c59baca24b7d93b3efdf2b8dc2b988b6936522',
  v: 162,
  creates: null,
  raw: '0xf86d830441bd8502540be4008303345094c4c162a97b6f43a255d491dfffcd703a54a042ad8084391521f481a2a0f1bd3cfa6182bb07af4f8f603d70bfbaf054515ea28592534e1bcdd78837a205a02c0f53ea9b95dc10b2e0b51dd6c59baca24b7d93b3efdf2b8dc2b988b6936522',
  networkId: 63,
  wait: [Function (anonymous)]
}
{
  hash: '0xa04569453f51888449f7a86d1adafa3bdd8aafae1ca48da4eed3274839825099',
  blockHash: '0x8d10c1529b7cab570c9bf69bf2d24283bca1040f5df7c25d9b4131dee59db246',
  blockNumber: 1559154,
  transactionIndex: 1,
  confirmations: 1,
  from: '0x877BD459c9B7D8576B44E59E09d076C25946F443',
  gasPrice: BigNumber { _hex: '0x2540be400' },
  gasLimit: BigNumber { _hex: '0x33450' },
  to: '0x7335B79553931Ce30B490e8cef762504c127163B',
  value: BigNumber { _hex: '0x0' },
  nonce: 278974,
  data: '0x391521f4',
  r: '0xa35ef8e550bde98d929892415d5abad17c59bec67c549f094b115fdfb6e64b3c',
  s: '0x7f17b6ca5948c5161b451b1197d97c8d20852841627556dac0eca5fd0d64ab3d',
  v: 161,
  creates: null,
  raw: '0xf86d830441be8502540be40083033450947335b79553931ce30b490e8cef762504c127163b8084391521f481a1a0a35ef8e550bde98d929892415d5abad17c59bec67c549f094b115fdfb6e64b3ca07f17b6ca5948c5161b451b1197d97c8d20852841627556dac0eca5fd0d64ab3d',
  networkId: 63,
  wait: [Function (anonymous)]
}
{
  hash: '0x1c37c63a8df74e87c807c802097078b4e0e872d9082b7d3321821bd9829e27de',
  blockHash: '0x8d10c1529b7cab570c9bf69bf2d24283bca1040f5df7c25d9b4131dee59db246',
  blockNumber: 1559154,
  transactionIndex: 2,
  confirmations: 1,
  from: '0x877BD459c9B7D8576B44E59E09d076C25946F443',
  gasPrice: BigNumber { _hex: '0x2540be400' },
  gasLimit: BigNumber { _hex: '0x33450' },
  to: '0xFcA158Be06aC6612F0584Ac1F6E567034dA7e2F5',
  value: BigNumber { _hex: '0x0' },
  nonce: 278975,
  data: '0x391521f4',
  r: '0x5ed06c53166ed8f66bdf839ddb2bbeb8973b6d2d2b8e7fba98c266344385a0cc',
  s: '0x0d2eb999c35360c6c3d1a7738a240cff70ee946f2a16ab3063450419a9ddf56b',
  v: 162,
  creates: null,
  raw: '0xf86d830441bf8502540be4008303345094fca158be06ac6612f0584ac1f6e567034da7e2f58084391521f481a2a05ed06c53166ed8f66bdf839ddb2bbeb8973b6d2d2b8e7fba98c266344385a0cca00d2eb999c35360c6c3d1a7738a240cff70ee946f2a16ab3063450419a9ddf56b',
  networkId: 63,
  wait: [Function (anonymous)]
}
{
  hash: '0x7b8accfc2062dd32987d29755bdd8aa83e8464b4fbecf9dd08eac5942ec78132',
  blockHash: '0x8d10c1529b7cab570c9bf69bf2d24283bca1040f5df7c25d9b4131dee59db246',
  blockNumber: 1559154,
  transactionIndex: 3,
  confirmations: 1,
  from: '0x877BD459c9B7D8576B44E59E09d076C25946F443',
  gasPrice: BigNumber { _hex: '0x2540be400' },
  gasLimit: BigNumber { _hex: '0x33450' },
  to: '0x526f122BBC8B273FCA6324d58c796048e5F52b73',
  value: BigNumber { _hex: '0x0' },
  nonce: 278976,
  data: '0x391521f4',
  r: '0xd8878b60f1a7f15f6a14ef9a812292c2453b704e1cc38afeff7915f76ae26698',
  s: '0x69eb5b41cfe7d3055eb2e13367d899cb1eefdff27017f38546b537e83a58e810',
  v: 161,
  creates: null,
  raw: '0xf86d830441c08502540be4008303345094526f122bbc8b273fca6324d58c796048e5f52b738084391521f481a1a0d8878b60f1a7f15f6a14ef9a812292c2453b704e1cc38afeff7915f76ae26698a069eb5b41cfe7d3055eb2e13367d899cb1eefdff27017f38546b537e83a58e810',
  networkId: 63,
  wait: [Function (anonymous)]
}
{
  hash: '0x51d2d7e8f593fecd1942b6604e68a2a54ac54528622b98796fa44cd12a709111',
  blockHash: '0x8d10c1529b7cab570c9bf69bf2d24283bca1040f5df7c25d9b4131dee59db246',
  blockNumber: 1559154,
  transactionIndex: 4,
  confirmations: 1,
  from: '0x877BD459c9B7D8576B44E59E09d076C25946F443',
  gasPrice: BigNumber { _hex: '0x2540be400' },
  gasLimit: BigNumber { _hex: '0x33450' },
  to: '0x789D8169d52AA022AAc9D5930b52D0d99D501C8d',
  value: BigNumber { _hex: '0x0' },
  nonce: 278977,
  data: '0x391521f4',
  r: '0xcafedc2861ef24ced1d133ea3a6dc7cb0adfb3f1ec27eb9f8df4daee82a0f003',
  s: '0x205e69c1d11cf71e1e266889511133a1f3d1f3d8d38b273d95e32e5b652d1455',
  v: 161,
  creates: null,
  raw: '0xf86d830441c18502540be4008303345094789d8169d52aa022aac9d5930b52d0d99d501c8d8084391521f481a1a0cafedc2861ef24ced1d133ea3a6dc7cb0adfb3f1ec27eb9f8df4daee82a0f003a0205e69c1d11cf71e1e266889511133a1f3d1f3d8d38b273d95e32e5b652d1455',
  networkId: 63,
  wait: [Function (anonymous)]
}
{
  hash: '0x433c962478c8754e5570bd2931e74dddaee00dabe4aef9404943e9ecc956c480',
  blockHash: '0x8d10c1529b7cab570c9bf69bf2d24283bca1040f5df7c25d9b4131dee59db246',
  blockNumber: 1559154,
  transactionIndex: 5,
  confirmations: 1,
  from: '0x877BD459c9B7D8576B44E59E09d076C25946F443',
  gasPrice: BigNumber { _hex: '0x2540be400' },
  gasLimit: BigNumber { _hex: '0x33450' },
  to: '0x2CcF921E1BB3F14d293763BeaC8065d17d89D61B',
  value: BigNumber { _hex: '0x0' },
  nonce: 278978,
  data: '0x391521f4',
  r: '0xf44eb3767441fefb29af2c4cabdf6eb75e340b3e83f36b1dd2dbc8b0857c1ca9',
  s: '0x0239213642ed7bd1ecbbab37ab6955c003a44b6338e76fdf636290d1240c233d',
  v: 161,
  creates: null,
  raw: '0xf86d830441c28502540be40083033450942ccf921e1bb3f14d293763beac8065d17d89d61b8084391521f481a1a0f44eb3767441fefb29af2c4cabdf6eb75e340b3e83f36b1dd2dbc8b0857c1ca9a00239213642ed7bd1ecbbab37ab6955c003a44b6338e76fdf636290d1240c233d',
  networkId: 63,
  wait: [Function (anonymous)]
}
{
  hash: '0x0b746e0788471b5bb483cba11f750fdb257e4c4a825cedc58310111556457e42',
  blockHash: '0x8d10c1529b7cab570c9bf69bf2d24283bca1040f5df7c25d9b4131dee59db246',
  blockNumber: 1559154,
  transactionIndex: 6,
  confirmations: 1,
  from: '0x877BD459c9B7D8576B44E59E09d076C25946F443',
  gasPrice: BigNumber { _hex: '0x2540be400' },
  gasLimit: BigNumber { _hex: '0x33450' },
  to: '0xB44Fa24E6db364372671270Cc6A7D53aA2B5608F',
  value: BigNumber { _hex: '0x0' },
  nonce: 278979,
  data: '0x391521f4',
  r: '0x8f7507cd84b4c2471a9b29ba0f13a8274ad06602647b1aff8cef57e1a7e85089',
  s: '0x03aeebe5049821fc8bb5069dc0cdb829b8ae86832dfefa42999c57ec6825c7c8',
  v: 162,
  creates: null,
  raw: '0xf86d830441c38502540be4008303345094b44fa24e6db364372671270cc6a7d53aa2b5608f8084391521f481a2a08f7507cd84b4c2471a9b29ba0f13a8274ad06602647b1aff8cef57e1a7e85089a003aeebe5049821fc8bb5069dc0cdb829b8ae86832dfefa42999c57ec6825c7c8',
  networkId: 63,
  wait: [Function (anonymous)]
}
{
  hash: '0x12c2673b3d0dd8b7d38ee82d1f07ae218c7807e97e4e43304dfbe0cb712f27a3',
  blockHash: '0x8d10c1529b7cab570c9bf69bf2d24283bca1040f5df7c25d9b4131dee59db246',
  blockNumber: 1559154,
  transactionIndex: 7,
  confirmations: 1,
  from: '0x877BD459c9B7D8576B44E59E09d076C25946F443',
  gasPrice: BigNumber { _hex: '0x2540be400' },
  gasLimit: BigNumber { _hex: '0x33450' },
  to: '0x939d7d0FBF6b6F542014F99e712473d68671d2d6',
  value: BigNumber { _hex: '0x0' },
  nonce: 278980,
  data: '0x391521f4',
  r: '0xa9621a1d3c1cd72c4c6261fdd29ef6f0a703e25dee321673a8df30f5faa7ae66',
  s: '0x0c709ed13cee27c20199d4ae945acca1630f323fc00d810c0bc2b4c39fa8234e',
  v: 162,
  creates: null,
  raw: '0xf86d830441c48502540be4008303345094939d7d0fbf6b6f542014f99e712473d68671d2d68084391521f481a2a0a9621a1d3c1cd72c4c6261fdd29ef6f0a703e25dee321673a8df30f5faa7ae66a00c709ed13cee27c20199d4ae945acca1630f323fc00d810c0bc2b4c39fa8234e',
  networkId: 63,
  wait: [Function (anonymous)]
}
{
  hash: '0xe8148956ea7e2b2f0a29477f08ddcee5bd3b5d393c18ea3ba8b01f6834250f67',
  blockHash: '0x8d10c1529b7cab570c9bf69bf2d24283bca1040f5df7c25d9b4131dee59db246',
  blockNumber: 1559154,
  transactionIndex: 8,
  confirmations: 1,
  from: '0x877BD459c9B7D8576B44E59E09d076C25946F443',
  gasPrice: BigNumber { _hex: '0x2540be400' },
  gasLimit: BigNumber { _hex: '0x33450' },
  to: '0x640DC0cdA1Bb4138Fa45CEA27123614444e74264',
  value: BigNumber { _hex: '0x0' },
  nonce: 278981,
  data: '0x391521f4',
  r: '0x548b939b47f9b8f5ad0b68e5b10a69fa80994dfec8607ee30d2b59d28395b8e2',
  s: '0x16c3cdbd33a4e183bd66c756d458bca5706cb80f1601d3b2b21b5821c49522b2',
  v: 162,
  creates: null,
  raw: '0xf86d830441c58502540be4008303345094640dc0cda1bb4138fa45cea27123614444e742648084391521f481a2a0548b939b47f9b8f5ad0b68e5b10a69fa80994dfec8607ee30d2b59d28395b8e2a016c3cdbd33a4e183bd66c756d458bca5706cb80f1601d3b2b21b5821c49522b2',
  networkId: 63,
  wait: [Function (anonymous)]
}
{
  hash: '0x35977bdb0c3c8373f0ecfd66daa176b1d06295838138b708ab0e6e0e999f444f',
  blockHash: '0x8d10c1529b7cab570c9bf69bf2d24283bca1040f5df7c25d9b4131dee59db246',
  blockNumber: 1559154,
  transactionIndex: 9,
  confirmations: 1,
  from: '0x877BD459c9B7D8576B44E59E09d076C25946F443',
  gasPrice: BigNumber { _hex: '0x2540be400' },
  gasLimit: BigNumber { _hex: '0x33450' },
  to: '0xc5D0B4Dc46E38A556235DbfBBE4a3D5836242a34',
  value: BigNumber { _hex: '0x0' },
  nonce: 278982,
  data: '0x391521f4',
  r: '0xb3d4e5d7d60862cba61297bc003f61f3b64312d0607779681498a1ef3f4a7c42',
  s: '0x41f3829f91c8d044c1151dd61310066b55399ff72ab5e837dbc4111529256dcb',
  v: 161,
  creates: null,
  raw: '0xf86d830441c68502540be4008303345094c5d0b4dc46e38a556235dbfbbe4a3d5836242a348084391521f481a1a0b3d4e5d7d60862cba61297bc003f61f3b64312d0607779681498a1ef3f4a7c42a041f3829f91c8d044c1151dd61310066b55399ff72ab5e837dbc4111529256dcb',
  networkId: 63,
  wait: [Function (anonymous)]
}
{
  hash: '0x4c5a5d7009858b9841f9ac593f4c8ca68d831768cf93d4a4d4bcc4bb7b73b13c',
  blockHash: '0x8d10c1529b7cab570c9bf69bf2d24283bca1040f5df7c25d9b4131dee59db246',
  blockNumber: 1559154,
  transactionIndex: 10,
  confirmations: 1,
  from: '0x877BD459c9B7D8576B44E59E09d076C25946F443',
  gasPrice: BigNumber { _hex: '0x2540be400' },
  gasLimit: BigNumber { _hex: '0x33450' },
  to: '0xe7678Aa2510E8A243F3a6e499936B300849AfEA7',
  value: BigNumber { _hex: '0x0' },
  nonce: 278983,
  data: '0x391521f4',
  r: '0x6c815cc68d5f4993472ecdec929753e4b0308a61b5971ded66237f0cdea8e191',
  s: '0x3f3b8f458a7012e9675af9f06c1e5f53bd9c758efc08bb3fee6363f6c7545126',
  v: 162,
  creates: null,
  raw: '0xf86d830441c78502540be4008303345094e7678aa2510e8a243f3a6e499936b300849afea78084391521f481a2a06c815cc68d5f4993472ecdec929753e4b0308a61b5971ded66237f0cdea8e191a03f3b8f458a7012e9675af9f06c1e5f53bd9c758efc08bb3fee6363f6c7545126',
  networkId: 63,
  wait: [Function (anonymous)]
}
{
  hash: '0x029749486f9195c361c47c0ad5718f7ae44e7553834bbaeac3aa63d66157b87d',
  blockHash: '0x8d10c1529b7cab570c9bf69bf2d24283bca1040f5df7c25d9b4131dee59db246',
  blockNumber: 1559154,
  transactionIndex: 11,
  confirmations: 1,
  from: '0x877BD459c9B7D8576B44E59E09d076C25946F443',
  gasPrice: BigNumber { _hex: '0x2540be400' },
  gasLimit: BigNumber { _hex: '0x33450' },
  to: '0xaDAA815f16E872cFC0a3f526f4e1AD23b5F033CF',
  value: BigNumber { _hex: '0x0' },
  nonce: 278984,
  data: '0x391521f4',
  r: '0x64547610d1d5372607808de6d303962c686d846ac6d3f2418d87aebdc9e2720d',
  s: '0x4286ee72c3bf74fe33cb94f4938f0f7535d2b6000f068ead8565675d642a1662',
  v: 162,
  creates: null,
  raw: '0xf86d830441c88502540be4008303345094adaa815f16e872cfc0a3f526f4e1ad23b5f033cf8084391521f481a2a064547610d1d5372607808de6d303962c686d846ac6d3f2418d87aebdc9e2720da04286ee72c3bf74fe33cb94f4938f0f7535d2b6000f068ead8565675d642a1662',
  networkId: 63,
  wait: [Function (anonymous)]
}
{
  hash: '0x514eed80e1bbc6cd9f170c08672b9d725157f2db5ecc6dae90a3bcfbfc6701d7',
  blockHash: '0x8d10c1529b7cab570c9bf69bf2d24283bca1040f5df7c25d9b4131dee59db246',
  blockNumber: 1559154,
  transactionIndex: 12,
  confirmations: 1,
  from: '0x877BD459c9B7D8576B44E59E09d076C25946F443',
  gasPrice: BigNumber { _hex: '0x2540be400' },
  gasLimit: BigNumber { _hex: '0x33450' },
  to: '0x31b0a7e338257a9d2187FFb62c6F5c26Ab108253',
  value: BigNumber { _hex: '0x0' },
  nonce: 278985,
  data: '0x391521f4',
  r: '0x8eeb979b4c162e0e111da00568e2b72fdeec91c3f093d341d2904395989f02dd',
  s: '0x29ed385b17b5434fec655d0a2df9754cab85a39a49935f9c3ef91e92aa7c1dc3',
  v: 162,
  creates: null,
  raw: '0xf86d830441c98502540be400830334509431b0a7e338257a9d2187ffb62c6f5c26ab1082538084391521f481a2a08eeb979b4c162e0e111da00568e2b72fdeec91c3f093d341d2904395989f02dda029ed385b17b5434fec655d0a2df9754cab85a39a49935f9c3ef91e92aa7c1dc3',
  networkId: 63,
  wait: [Function (anonymous)]
}
{
  hash: '0x1a6e96caa3c7942c2155dda01dad81b5323ebfb28c76dc471b4ff4a28515cb6b',
  blockHash: '0x8d10c1529b7cab570c9bf69bf2d24283bca1040f5df7c25d9b4131dee59db246',
  blockNumber: 1559154,
  transactionIndex: 13,
  confirmations: 1,
  from: '0x877BD459c9B7D8576B44E59E09d076C25946F443',
  gasPrice: BigNumber { _hex: '0x2540be400' },
  gasLimit: BigNumber { _hex: '0x33450' },
  to: '0x5f4045b4982ddfB58969259c01a805b613ff3e2E',
  value: BigNumber { _hex: '0x0' },
  nonce: 278986,
  data: '0x391521f4',
  r: '0x83c53568d7ed26c2ef3453540b5c40dc9a3ddc0b05bb5f935e7bdb81317b130d',
  s: '0x0fa48037028045fe57d01d94c3a2a6fd9bb34f506a169bef12e656529c686ef2',
  v: 162,
  creates: null,
  raw: '0xf86d830441ca8502540be40083033450945f4045b4982ddfb58969259c01a805b613ff3e2e8084391521f481a2a083c53568d7ed26c2ef3453540b5c40dc9a3ddc0b05bb5f935e7bdb81317b130da00fa48037028045fe57d01d94c3a2a6fd9bb34f506a169bef12e656529c686ef2',
  networkId: 63,
  wait: [Function (anonymous)]
}
{
  hash: '0xa5b67d68c408fccd075260a29fa604c8680b0fa14400e699982b2a25cbe32d4f',
  blockHash: '0x8d10c1529b7cab570c9bf69bf2d24283bca1040f5df7c25d9b4131dee59db246',
  blockNumber: 1559154,
  transactionIndex: 14,
  confirmations: 1,
  from: '0x877BD459c9B7D8576B44E59E09d076C25946F443',
  gasPrice: BigNumber { _hex: '0x2540be400' },
  gasLimit: BigNumber { _hex: '0x33450' },
  to: '0x3BACa5387f98ECC3AA4ff501A0ccf1Db7bC2AD74',
  value: BigNumber { _hex: '0x0' },
  nonce: 278987,
  data: '0x391521f4',
  r: '0xdf29222c86026c7de2475cdcf39f05b43bc125f604ff56dc23f0ef61c2de0eb2',
  s: '0x11bcd628834ec43dcd91010c88302c7ff14d1b21b15d8479fb29d1170fbb0dc0',
  v: 161,
  creates: null,
  raw: '0xf86d830441cb8502540be40083033450943baca5387f98ecc3aa4ff501a0ccf1db7bc2ad748084391521f481a1a0df29222c86026c7de2475cdcf39f05b43bc125f604ff56dc23f0ef61c2de0eb2a011bcd628834ec43dcd91010c88302c7ff14d1b21b15d8479fb29d1170fbb0dc0',
  networkId: 63,
  wait: [Function (anonymous)]
}
testing edgecases at undefined...
0x6060604052341561000f57600080fd5b6040516020806103b58339810160405280805160008054600160a060020a03338116600160a060020a0319928316179092556001805492909316911617905550506103568061005f6000396000f3006060604052600436106100535763ffffffff60e060020a60003504166310c42eaf81146100555780634d63a5421461006c5780634fe870ab146100995780635bee6f92146100c85780638da5cb5b146100e7575b005b610053600160a060020a03600435166024356100fa565b610053600160a060020a03600435166024356fffffffffffffffffffffffffffffffff19604435166101c2565b34156100a457600080fd5b6100ac6102c2565b604051600160a060020a03909116815260200160405180910390f35b34156100d357600080fd5b610053600160a060020a03600435166102d1565b34156100f257600080fd5b6100ac61031b565b60005433600160a060020a039081169116148061017f5750600154600160a060020a031663fe9fbb803360405160e060020a63ffffffff8416028152600160a060020a039091166004820152602401602060405180830381600087803b151561016257600080fd5b5af1151561016f57600080fd5b5050506040518051151560011490505b151561018a57600080fd5b600160a060020a03821634820180156108fc0290604051600060405180830381858888f1935050505015156101be57600080fd5b5050565b60005433600160a060020a03908116911614806102475750600154600160a060020a031663fe9fbb803360405160e060020a63ffffffff8416028152600160a060020a039091166004820152602401602060405180830381600087803b151561022a57600080fd5b5af1151561023757600080fd5b5050506040518051151560011490505b151561025257600080fd5b82600160a060020a031663359d1f118334018360405160e060020a63ffffffff85160281526fffffffffffffffffffffffffffffffff1990911660048201526024016000604051808303818588803b15156102ac57600080fd5b5af115156102b957600080fd5b50505050505050565b600154600160a060020a031681565b60005433600160a060020a039081169116146102ec57600080fd5b6001805473ffffffffffffffffffffffffffffffffffffffff1916600160a060020a0392909216919091179055565b600054600160a060020a0316815600a165627a7a7230582046ee003a7d8c03a02f6ba3dfdb80862c30abaf5fcbb8d5cbfccde55270e6e2a3002900000000000000000000000072dab16d86da2e2c05d0bff39477f271b059dd0e
{
  hash: '0x4621b9f8bb698109c0460eebc76a97b16ad7469843b48068c44061628cb897e6',
  blockHash: null,
  blockNumber: null,
  transactionIndex: null,
  confirmations: 0,
  from: '0x877BD459c9B7D8576B44E59E09d076C25946F443',
  gasPrice: BigNumber { _hex: '0x2540be400' },
  gasLimit: BigNumber { _hex: '0x33450' },
  to: null,
  value: BigNumber { _hex: '0x0' },
  nonce: 278988,
  data: '0x6060604052341561000f57600080fd5b6040516020806103b58339810160405280805160008054600160a060020a03338116600160a060020a0319928316179092556001805492909316911617905550506103568061005f6000396000f3006060604052600436106100535763ffffffff60e060020a60003504166310c42eaf81146100555780634d63a5421461006c5780634fe870ab146100995780635bee6f92146100c85780638da5cb5b146100e7575b005b610053600160a060020a03600435166024356100fa565b610053600160a060020a03600435166024356fffffffffffffffffffffffffffffffff19604435166101c2565b34156100a457600080fd5b6100ac6102c2565b604051600160a060020a03909116815260200160405180910390f35b34156100d357600080fd5b610053600160a060020a03600435166102d1565b34156100f257600080fd5b6100ac61031b565b60005433600160a060020a039081169116148061017f5750600154600160a060020a031663fe9fbb803360405160e060020a63ffffffff8416028152600160a060020a039091166004820152602401602060405180830381600087803b151561016257600080fd5b5af1151561016f57600080fd5b5050506040518051151560011490505b151561018a57600080fd5b600160a060020a03821634820180156108fc0290604051600060405180830381858888f1935050505015156101be57600080fd5b5050565b60005433600160a060020a03908116911614806102475750600154600160a060020a031663fe9fbb803360405160e060020a63ffffffff8416028152600160a060020a039091166004820152602401602060405180830381600087803b151561022a57600080fd5b5af1151561023757600080fd5b5050506040518051151560011490505b151561025257600080fd5b82600160a060020a031663359d1f118334018360405160e060020a63ffffffff85160281526fffffffffffffffffffffffffffffffff1990911660048201526024016000604051808303818588803b15156102ac57600080fd5b5af115156102b957600080fd5b50505050505050565b600154600160a060020a031681565b60005433600160a060020a039081169116146102ec57600080fd5b6001805473ffffffffffffffffffffffffffffffffffffffff1916600160a060020a0392909216919091179055565b600054600160a060020a0316815600a165627a7a7230582046ee003a7d8c03a02f6ba3dfdb80862c30abaf5fcbb8d5cbfccde55270e6e2a3002900000000000000000000000072dab16d86da2e2c05d0bff39477f271b059dd0e',
  r: '0x8a338f4fe10c9cf43c2010b5dca15f74c3cad73dcb8c3e80a3559d40ed6539fd',
  s: '0x1dbf04cc0b30660b1c6d4f4bc085ed0af4179ecb34529b7ff9c9de018d9ccd4b',
  v: 161,
  creates: '0xACC4283cE9ee7E7E5da97264a9FAF4cD6f6e3bDd',
  raw: '0xf9042c830441cc8502540be400830334508080b903d56060604052341561000f57600080fd5b6040516020806103b58339810160405280805160008054600160a060020a03338116600160a060020a0319928316179092556001805492909316911617905550506103568061005f6000396000f3006060604052600436106100535763ffffffff60e060020a60003504166310c42eaf81146100555780634d63a5421461006c5780634fe870ab146100995780635bee6f92146100c85780638da5cb5b146100e7575b005b610053600160a060020a03600435166024356100fa565b610053600160a060020a03600435166024356fffffffffffffffffffffffffffffffff19604435166101c2565b34156100a457600080fd5b6100ac6102c2565b604051600160a060020a03909116815260200160405180910390f35b34156100d357600080fd5b610053600160a060020a03600435166102d1565b34156100f257600080fd5b6100ac61031b565b60005433600160a060020a039081169116148061017f5750600154600160a060020a031663fe9fbb803360405160e060020a63ffffffff8416028152600160a060020a039091166004820152602401602060405180830381600087803b151561016257600080fd5b5af1151561016f57600080fd5b5050506040518051151560011490505b151561018a57600080fd5b600160a060020a03821634820180156108fc0290604051600060405180830381858888f1935050505015156101be57600080fd5b5050565b60005433600160a060020a03908116911614806102475750600154600160a060020a031663fe9fbb803360405160e060020a63ffffffff8416028152600160a060020a039091166004820152602401602060405180830381600087803b151561022a57600080fd5b5af1151561023757600080fd5b5050506040518051151560011490505b151561025257600080fd5b82600160a060020a031663359d1f118334018360405160e060020a63ffffffff85160281526fffffffffffffffffffffffffffffffff1990911660048201526024016000604051808303818588803b15156102ac57600080fd5b5af115156102b957600080fd5b50505050505050565b600154600160a060020a031681565b60005433600160a060020a039081169116146102ec57600080fd5b6001805473ffffffffffffffffffffffffffffffffffffffff1916600160a060020a0392909216919091179055565b600054600160a060020a0316815600a165627a7a7230582046ee003a7d8c03a02f6ba3dfdb80862c30abaf5fcbb8d5cbfccde55270e6e2a3002900000000000000000000000072dab16d86da2e2c05d0bff39477f271b059dd0e81a1a08a338f4fe10c9cf43c2010b5dca15f74c3cad73dcb8c3e80a3559d40ed6539fda01dbf04cc0b30660b1c6d4f4bc085ed0af4179ecb34529b7ff9c9de018d9ccd4b',
  networkId: 63,
  wait: [Function (anonymous)]
}
Anemone executed without errors!
Done in 69.30s.
